:060000000C9430000C948A
:1000060000000C9400000C9400000C9400000C946A
:1000160000000C9400000C9400000C9400000C945A
:100026005D000C9400000C9400000C9400000C94ED
:1000360000000C9400000C9400000C9400000C943A
:1000460000000C9400000C9400000C9400000905BC
:10005600060A0400600154000000F894EE27ECBB89
:10006600F1E0FBBFEBBFE5BF8DE0A2E0BB27ED9360
:100076008A95E9F780E094E0A0E6ED930197E9F729
:10008600E8E5F0E085919591009761F0A591B5912D
:1000960005901590BF01F00105900D920197E1F7CB
:1000A600FB01F0CFEFE5EDBFE4E0EEBFC0E6D1E047
:1000B6000C9492000A921A92FA926A937A938A930D
:1000C6009A93AA93BA93EA93FA93EFB7EA93ECE07A
:1000D600E2BFE4E1F0E04E165F068CF49A990CC09C
:1000E600E091600136D0E091610133D0E091620188
:1000F60030D0E09163012DD0F20131962F014424D6
:100106005524E991EFBFF991E991B991A991999196
:10011600899179916991F990199009901895E5E07E
:10012600E3BFECE0E2BFE0E0ECBFEFBDEEBDEDBD4E
:10013600ECBDE5BDE4BDE1E0E9BF78944424552477
:10014600E0E0E4BBE3BBEFEFE7BBE0E0E8BBFFCFFB
:10015600FFCFE8BBA4E1B0E00C94B100109639F0F3
:1001660080ED97E00197F1F7A8951197C9F70895E3
:00000001FF
