:0E0000000C942A000C9400000C9400000C9448
:10000E0000000C9400000C9400000C9400000C9462
:10001E0000000C9400000C9400000C9400000C9452
:10002E0000000C9400000C9400000C9400000C9442
:10003E0000000C9400000C9400000C9400000C9432
:10004E0000000C940000F894EE27ECBBF1E0FBBF2F
:10005E00EBBFE5BF8DE0A2E0BB27ED938A95E9F7F4
:10006E0080E094E0A0E6ED930197E9F7EFE5EDBFB0
:10007E00E4E0EEBFC0E6D1E00C944500B89AC0981B
:10008E00B99AC198BA9AC298BB9AC398BC9AC498A6
:10009E00BD9AC598BE9AC698BF9AC798D098D89858
:1000AE00C89B25C0C09A25D029D0C19AC298C398A2
:1000BE00C49824D0C198C29AC398C4981FD0C1982E
:1000CE00C298C39AC4981AD0C198C298C398C49AB9
:1000DE0015D00FD0C59AC6981AD0C598C69A17D003
:1000EE00C598C698C79AA4EFB1E00E949500D8CFE4
:1000FE00FFCFC198C298C398C4980895C598C69862
:10010E00C798A4EFB1E00E949500C0980895C798D3
:10011E00A4EFB1E00E949500C098EBCF109639F095
:10012E0080ED97E00197F1F7A8951197C9F708951B
:00000001FF
