:0C0000000C943C000C9400000C940000D8
:10000C000C9400000C9400000C9400000C94000064
:10001C000C9400000C948C000C9469000C9400005F
:10002C000C9400000C9400000C9400000C94000044
:10003C000C9400000C9400000C9400000C94000034
:10004C000C9400000C94000000003F065B4F666DA2
:10005C007D077F6F11FBFDFE0200040054000A00B7
:10006C006001560004006A0160000000F894EE275D
:10007C00ECBBF1E0FBBFEBBFE5BF8DE0A2E0BB2723
:10008C00ED938A95E9F780E094E0A0E6ED93019773
:10009C00E9F7E4E6F0E085919591009761F0A59180
:1000AC00B59105901590BF01F00105900D92019747
:1000BC00E1F7FB01F0CFEFE5EDBFE4E0EEBFC0E60A
:1000CC00D1E00C949300AA93BA93EA93FA93EFB706
:1000DC00EA93AAE6B1E0A40DB51DEC91F0E0E05A6C
:1000EC00FE4FE081E2BBF20131962F01E4E0F0E03B
:1000FC00E415F50511F444245524E0E0E2BFE99140
:10010C00EFBFF991E991B991A9911895EA93EFEFA5
:10011C00EDBDE0EFECBDE9911895EFEFE1BBE0E050
:10012C00E2BBEFEFE4BBEFEEE5BBE5E0E9BFE3BF1D
:10013C00E0E0E2BFECBFEFBDE5E0EEBDEFEFEDBD03
:10014C00E0EFECBDE0E0E5BFE4BF7894FFCFFFCF7C
:00000001FF
