:020000000C945E
:1000020038000C9400000C9400000C9400000C9436
:1000120000000C9400000C9400000C9400000C945E
:1000220065000C9400000C9400000C9400000C94E9
:1000320000000C9400000C9400000C9400000C943E
:1000420000000C9400000C9400000C9400000C942E
:100052000000000000003F065B4F666D7D077F6F6A
:100062000400040054000A00600158000000F894E3
:10007200EE27ECBBF1E0FBBFEBBFE5BF8DE0A2E0FA
:10008200BB27ED938A95E9F780E094E0A0E6ED9333
:100092000197E9F7E2E6F0E085919591009761F02A
:1000A200A591B59105901590BF01F00105900D92B3
:1000B2000197E1F7FB01F0CFEFE5EDBFE4E0EEBF22
:1000C200C0E6D1E00C948E00AA93BA93EA93FA9315
:1000D200EFB7EA93F20131962F01E5E0F0E0E41583
:1000E200F50581F4EAE0F0E06E167F0614F066246E
:1000F2007724A0E6B1E0A60DB71DEC91E2BBF301B7
:1001020031963F01EFEFEDBDE0EFECBDE991EFBFBE
:10011200F991E991B991A9911895EFEFE1BBE0E06E
:10012200E2BBEFBDE1E0EEBDEFEFEDBDE0EFECBD18
:10013200E4E0E9BFE0E0E5BFE4BF7894FFCFFFCFA2
:00000001FF
