:080000000C942A000C9400008E
:100008000C9400000C9400000C9400000C94000068
:100018000C9400000C9400000C9400000C94000058
:100028000C9400000C9400000C9400000C94000048
:100038000C9400000C9400000C9400000C94000038
:100048000C9400000C9400000C940000F894EE2727
:10005800ECBBF1E0FBBFEBBFE5BF8DE0A2E0BB2747
:10006800ED938A95E9F780E094E0A0E6ED93019797
:10007800E9F7EFE5EDBFE4E0EEBFC0E6D1E00C94B0
:100088004500B89AC098B99AC198BA9AC298BB9ACA
:10009800C398BC9AC498BD9AC598BE9AC698BF9A88
:1000A800C798D098D898C89B2AC0C09A2AD02ED072
:1000B800C19AC29834D0C198C29A31D033D037D0BF
:1000C80020D03AD01ED041D0C598C698C79AA4EF80
:1000D800B1E00E94B200C09814D037D02DD027D0FC
:1000E80021D0C198C29A1BD0C19AC298C398C4980B
:1000F800C598C698C798A4EFB1E00E94B200D3CFC4
:10010800FFCFC198C298C398C4980895C598C69857
:10011800C798A4EFB1E00E94B200C0980895C398B0
:10012800C498F4CFC198C298C39AC498EFCFC19825
:10013800C298C398C49AEACFC59AC698C798A4EF3C
:10014800B1E00E94B200C0980895C598C69AC798B1
:10015800A4EFB1E00E94B200C098D3CF109639F056
:1001680080ED97E00197F1F7A8951197C9F70895E1
:00000001FF
