:0A0000000C943F000C9400000C94D7
:10000A0000000C9400000C9400000C9400000C9466
:10001A0000000C9400000C9400000C9400000C9456
:10002A0000000C9400000C9400000C9400000C9446
:10003A0000000C9400000C9400000C9400000C9436
:10004A0000000C9400000C94000061626364656611
:10005A006768696A6B6C6D6E6F70717273747576AE
:10006A007778797A80C01A006001540002007A0118
:10007A006E000000F894EE27ECBBF1E0FBBFEBBF8B
:10008A00E5BF8DE0A2E0BB27ED938A95E9F780E012
:10009A0094E0A0E6ED930197E9F7E0E7F0E08591B7
:1000AA009591009761F0A591B59105901590BF01C2
:1000BA00F00105900D920197E1F7FB01F0CFEFE512
:1000CA00EDBFE4E0EEBFC0E6D1E00C946C00E0E0E6
:1000DA00E1BBE2BBA0E16BD044245524EBE1F0E0A4
:1000EA004E165F0674F4A0E6B1E0A40DB51DAC91FE
:1000FA004AD0A4E6B0E00E941301F20131962F0122
:10010A00EDCF37D0A8ECB0E00E941301E0E0EA930B
:10011A00A0E022D0E1CFFFCFAA93E2B3EF70AE2FD7
:10012A00E881E07FEA2BE2BB8DE08A95F1F7929AAB
:10013A008DE08A95F1F792988DE08A95F1F760C083
:10014A00AA93A881E9DFE881E295E883A881E4DF40
:10015A0085E88A95F1F754C0AA93E881F0E0E65859
:10016A00FE4FE081A981AE0FEBDF7980688022968D
:10017A000895A2E047D0ACE0E3DFA1E043D0E0E09D
:10018A006E2E7E2E0895AA93A881AA3011F07914B2
:10019A0040F0E0E0EA936394A62DDEDFA881AA305E
:1001AA0079F17394909AA881CBDF909829C0AA9389
:1001BA00E1B3E06FE1BB8A9A889A899A92989098FB
:1001CA0091989880E881E058E0937C01E881E054B6
:1001DA00E0937D01A4E1B0E00E94130118D017D08A
:1001EA0016D0A0E299DF88EC90E00197F1F7A8E237
:1001FA00A7DFA4E0A5DFA5E8A3DFA6E0A1DFB9DFBA
:10020A00219608959DDFA3E0B0E00C941301A0E3CA
:10021A0083DF88EC90E00197F1F70895109639F0A2
:10022A0080ED97E00197F1F7A8951197C9F708951E
:00000001FF
